AA2607201805510EUROVAC                                                                                                                    UR                                                                                                                    
11UR28923922910000100000000RUR09072018Z6F4XXECK4JU3710125072018                                                                           UR                                                                                                                    
11UR28923922930000100000000RUR09072018S6FAXXTTGYEY1410825072018                                                                           UR                                                                                                                    
11UR28923922920000100000000RUR09072018Z6FAXXESMAJS0042525072018                                                                           UR                                                                                                                    
11UR31323913710000100000000RUR05072018Z6FAXXESMAJT0281725072018                                                                           UR                                                                                                                    
1Y0000000486738011200031                                                                                                                  UR                                                                                                                    
2Y0000000653959135400081                                                                                                                  UR                                                                                                                    
3Y0000006242807833500391                                                                                                                  UR                                                                                                                    
4Y0000000000000000000001                                                                                                                  UR                                                                                                                    
ZZ00010                                                                                                                                   UR                                                                                                                    
