AA6201809040001872F5 CAPITAL PAYMENTS                                      153440    
RU6  2384375Z6FLXXECHLJJ36576000025520181101201811010000013905851600000000RURALC          0000000000000000              
RU6  2385577Z6FBXXESWBJJ07758000025520181101201811010000029208669800000000RURALC          0000000000000000              
RU6  2385990Z6FDXXECKDJU37011000025520181101201811010000008800086000000000RURALC          0000000000000000              
RU6  2486135S6FAXXTTGYEY13201000025520181101201811010000010000000000000000RURALC          0000000000000000              
RU6  2486135S6FAXXTTGYEY13701000025520181101201811010000006000000000000000RURALC          0000000000000000              
RU6  2486235Z6FAXXTTGYEY13203000025520181101201811010000011000000000000000RURALC          0000000000000000              
YY6                                                                 0000000008          000000000789146074              