AA1307201509202EUROVAC                                                                                                                    UR
1Y0000000000000000000001                                                                                                                  UR
22UR12324661350000100000000RUR0907201509072015S6FAXXTTGYEY61201TTGY J3JX          00000178973640000100000000FL                            UR
22UR12324660150000100000000RUR0907201509072015Z6FAXXTTGYEY61203TTGY J3JX          00000178973640000100000000FL                            UR
22UR23124663350000100000000RUR0907201509072015S6FAXXTTGYEY61204TTGY J3JX          00000178973640000100000000FL                            UR
22UR23124664350000100000000RUR0907201509072015Z6FAXXTTGYEY61205TTGY J3JX          00000178973640000100000000FL                            UR
22UR23124662350000100000000RUR0907201509072015S6FAXXTTGYEY61206TTGY J3JX          00000178973640000100000000FL                            UR
22UR00724662150000100000000RUR0907201509072015Z6FAXXTTGYEY61207TTGY J3JX          00000178973640000100000000FL                            UR
22UR00724662050000100000000RUR0907201509072015S6FAXXTTGYEY61208TTGY J3JX          00000178973640000100000000FL                            UR
2Y0000000498145732000043                                                                                                                  UR
3Y0000000000000000000001                                                                                                                  UR
4Y0000000000000000000001                                                                                                                  UR
ZZ00013                                                                                                                                   UR